{
  "_format": "hh-sol-artifact-1",
  "contractName": "MerkleDistributor",
  "sourceName": "contracts/MerkleDistributor.sol",
  "abi": [
    {
      "inputs": [
        {
          "internalType": "address",
          "name": "token_",
          "type": "address"
        },
        {
          "internalType": "bytes32",
          "name": "merkleRoot_",
          "type": "bytes32"
        }
      ],
      "stateMutability": "nonpayable",
      "type": "constructor"
    },
    {
      "inputs": [],
      "name": "AlreadyClaimed",
      "type": "error"
    },
    {
      "inputs": [],
      "name": "NotInMerkle",
      "type": "error"
    },
    {
      "anonymous": false,
      "inputs": [
        {
          "indexed": true,
          "internalType": "address",
          "name": "to",
          "type": "address"
        },
        {
          "indexed": false,
          "internalType": "uint256",
          "name": "amount",
          "type": "uint256"
        }
      ],
      "name": "Claim",
      "type": "event"
    },
    {
      "inputs": [
        {
          "internalType": "address",
          "name": "to",
          "type": "address"
        },
        {
          "internalType": "uint256",
          "name": "amount",
          "type": "uint256"
        },
        {
          "internalType": "bytes32[]",
          "name": "proof",
          "type": "bytes32[]"
        }
      ],
      "name": "claim",
      "outputs": [],
      "stateMutability": "nonpayable",
      "type": "function"
    },
    {
      "inputs": [
        {
          "internalType": "address",
          "name": "",
          "type": "address"
        }
      ],
      "name": "hasClaimed",
      "outputs": [
        {
          "internalType": "bool",
          "name": "",
          "type": "bool"
        }
      ],
      "stateMutability": "view",
      "type": "function"
    },
    {
      "inputs": [],
      "name": "merkleRoot",
      "outputs": [
        {
          "internalType": "bytes32",
          "name": "",
          "type": "bytes32"
        }
      ],
      "stateMutability": "view",
      "type": "function"
    },
    {
      "inputs": [],
      "name": "token",
      "outputs": [
        {
          "internalType": "address",
          "name": "",
          "type": "address"
        }
      ],
      "stateMutability": "view",
      "type": "function"
    }
  ],
  "bytecode": "0x60c060405234801561001057600080fd5b50604051610b3e380380610b3e8339818101604052810190610032919061010e565b8173ffffffffffffffffffffffffffffffffffffffff1660808173ffffffffffffffffffffffffffffffffffffffff16815250508060a08181525050505061014e565b600080fd5b600073ffffffffffffffffffffffffffffffffffffffff82169050919050565b60006100a58261007a565b9050919050565b6100b58161009a565b81146100c057600080fd5b50565b6000815190506100d2816100ac565b92915050565b6000819050919050565b6100eb816100d8565b81146100f657600080fd5b50565b600081519050610108816100e2565b92915050565b6000806040838503121561012557610124610075565b5b6000610133858286016100c3565b9250506020610144858286016100f9565b9150509250929050565b60805160a0516109be6101806000396000818160db01526101f60152600081816102ad015261040001526109be6000f3fe608060405234801561001057600080fd5b506004361061004c5760003560e01c80632eb4a7ab146100515780633d13f8741461006f57806373b2e80e1461008b578063fc0c546a146100bb575b600080fd5b6100596100d9565b60405161006691906104de565b60405180910390f35b610089600480360381019061008491906105fc565b6100fd565b005b6100a560048036038101906100a09190610670565b6103de565b6040516100b291906106b8565b60405180910390f35b6100c36103fe565b6040516100d091906106e2565b60405180910390f35b7f000000000000000000000000000000000000000000000000000000000000000081565b6000808573ffffffffffffffffffffffffffffffffffffffff1673ffffffffffffffffffffffffffffffffffffffff16815260200190815260200160002060009054906101000a900460ff1615610180576040517f646cf55800000000000000000000000000000000000000000000000000000000815260040160405180910390fd5b60008484604051602001610195929190610766565b604051602081830303815290604052805190602001209050600061021b848480806020026020016040519081016040528093929190818152602001838360200280828437600081840152601f19601f820116905080830192505050505050507f000000000000000000000000000000000000000000000000000000000000000084610422565b905080610254576040517f8a585be200000000000000000000000000000000000000000000000000000000815260040160405180910390fd5b60016000808873ffffffffffffffffffffffffffffffffffffffff1673ffffffffffffffffffffffffffffffffffffffff16815260200190815260200160002060006101000a81548160ff0219169083151502179055507f000000000000000000000000000000000000000000000000000000000000000073ffffffffffffffffffffffffffffffffffffffff1663a9059cbb87876040518363ffffffff1660e01b81526004016103069291906107a1565b6020604051808303816000875af1158015610325573d6000803e3d6000fd5b505050506040513d601f19601f8201168201806040525081019061034991906107f6565b610388576040517f08c379a000000000000000000000000000000000000000000000000000000000815260040161037f906108a6565b60405180910390fd5b8573ffffffffffffffffffffffffffffffffffffffff167f47cee97cb7acd717b3c0aa1435d004cd5b3c8c57d70dbceb4e4458bbd60e39d4866040516103ce91906108c6565b60405180910390a2505050505050565b60006020528060005260406000206000915054906101000a900460ff1681565b7f000000000000000000000000000000000000000000000000000000000000000081565b60008261042f8584610439565b1490509392505050565b60008082905060005b84518110156104a35760008582815181106104605761045f6108e1565b5b602002602001015190508083116104825761047b83826104ae565b925061048f565b61048c81846104ae565b92505b50808061049b9061093f565b915050610442565b508091505092915050565b600082600052816020526040600020905092915050565b6000819050919050565b6104d8816104c5565b82525050565b60006020820190506104f360008301846104cf565b92915050565b600080fd5b600080fd5b600073ffffffffffffffffffffffffffffffffffffffff82169050919050565b600061052e82610503565b9050919050565b61053e81610523565b811461054957600080fd5b50565b60008135905061055b81610535565b92915050565b6000819050919050565b61057481610561565b811461057f57600080fd5b50565b6000813590506105918161056b565b92915050565b600080fd5b600080fd5b600080fd5b60008083601f8401126105bc576105bb610597565b5b8235905067ffffffffffffffff8111156105d9576105d861059c565b5b6020830191508360208202830111156105f5576105f46105a1565b5b9250929050565b60008060008060608587031215610616576106156104f9565b5b60006106248782880161054c565b945050602061063587828801610582565b935050604085013567ffffffffffffffff811115610656576106556104fe565b5b610662878288016105a6565b925092505092959194509250565b600060208284031215610686576106856104f9565b5b60006106948482850161054c565b91505092915050565b60008115159050919050565b6106b28161069d565b82525050565b60006020820190506106cd60008301846106a9565b92915050565b6106dc81610523565b82525050565b60006020820190506106f760008301846106d3565b92915050565b60008160601b9050919050565b6000610715826106fd565b9050919050565b60006107278261070a565b9050919050565b61073f61073a82610523565b61071c565b82525050565b6000819050919050565b61076061075b82610561565b610745565b82525050565b6000610772828561072e565b601482019150610782828461074f565b6020820191508190509392505050565b61079b81610561565b82525050565b60006040820190506107b660008301856106d3565b6107c36020830184610792565b9392505050565b6107d38161069d565b81146107de57600080fd5b50565b6000815190506107f0816107ca565b92915050565b60006020828403121561080c5761080b6104f9565b5b600061081a848285016107e1565b91505092915050565b600082825260208201905092915050565b7f4d65726b6c654469737472696275746f723a205472616e73666572206661696c60008201527f65642e0000000000000000000000000000000000000000000000000000000000602082015250565b6000610890602383610823565b915061089b82610834565b604082019050919050565b600060208201905081810360008301526108bf81610883565b9050919050565b60006020820190506108db6000830184610792565b92915050565b7f4e487b7100000000000000000000000000000000000000000000000000000000600052603260045260246000fd5b7f4e487b7100000000000000000000000000000000000000000000000000000000600052601160045260246000fd5b600061094a82610561565b91507fffffffffffffffffffffffffffffffffffffffffffffffffffffffffffffffff82141561097d5761097c610910565b5b60018201905091905056fea26469706673582212206361a4bb6f64b3a8df2ebef058ece2d82c4c22a9611f5eb0857f576f7f1cf50c64736f6c634300080b0033",
  "linkReferences": {},
  "deployedLinkReferences": {}
}